{
  "_format": "hh-sol-artifact-1",
  "contractName": "CrowdlendFactory",
  "sourceName": "contracts/CrowdlendFactory.sol",
  "abi": [
    {
      "inputs": [],
      "stateMutability": "nonpayable",
      "type": "constructor"
    },
    {
      "inputs": [
        {
          "internalType": "uint256",
          "name": "",
          "type": "uint256"
        }
      ],
      "name": "allCampaigns",
      "outputs": [
        {
          "internalType": "address",
          "name": "",
          "type": "address"
        }
      ],
      "stateMutability": "view",
      "type": "function"
    },
    {
      "inputs": [
        {
          "internalType": "address",
          "name": "_owner",
          "type": "address"
        },
        {
          "internalType": "address",
          "name": "_token",
          "type": "address"
        },
        {
          "internalType": "uint256",
          "name": "_goal",
          "type": "uint256"
        },
        {
          "internalType": "uint32",
          "name": "_endAt",
          "type": "uint32"
        }
      ],
      "name": "createCampaign",
      "outputs": [
        {
          "internalType": "address",
          "name": "campaignAddress",
          "type": "address"
        }
      ],
      "stateMutability": "nonpayable",
      "type": "function"
    },
    {
      "inputs": [],
      "name": "getAllCampaigns",
      "outputs": [
        {
          "internalType": "address[]",
          "name": "",
          "type": "address[]"
        }
      ],
      "stateMutability": "view",
      "type": "function"
    }
  ],
  "bytecode": "0x608060405234801561001057600080fd5b50611aa8806100206000396000f3fe608060405234801561001057600080fd5b50600436106100415760003560e01c80635b9e59d11461004657806386cdf60414610076578063a509f4d114610094575b600080fd5b610060600480360381019061005b919061038b565b6100c4565b60405161006d9190610401565b60405180910390f35b61007e6101db565b60405161008b91906104da565b60405180910390f35b6100ae60048036038101906100a991906104fc565b610269565b6040516100bb9190610401565b60405180910390f35b600080846040516100d4906102a8565b6100de9190610401565b604051809103906000f0801580156100fa573d6000803e3d6000fd5b5090508073ffffffffffffffffffffffffffffffffffffffff1663eea212748786866040518463ffffffff1660e01b815260040161013a93929190610573565b600060405180830381600087803b15801561015457600080fd5b505af1158015610168573d6000803e3d6000fd5b505050508091506000829080600181540180825580915050600190039060005260206000200160009091909190916101000a81548173ffffffffffffffffffffffffffffffffffffffff021916908373ffffffffffffffffffffffffffffffffffffffff16021790555050949350505050565b6060600080548060200260200160405190810160405280929190818152602001828054801561025f57602002820191906000526020600020905b8160009054906101000a900473ffffffffffffffffffffffffffffffffffffffff1673ffffffffffffffffffffffffffffffffffffffff1681526020019060010190808311610215575b5050505050905090565b6000818154811061027957600080fd5b906000526020600020016000915054906101000a900473ffffffffffffffffffffffffffffffffffffffff1681565b6114c880620005ab83390190565b600080fd5b600073ffffffffffffffffffffffffffffffffffffffff82169050919050565b60006102e6826102bb565b9050919050565b6102f6816102db565b811461030157600080fd5b50565b600081359050610313816102ed565b92915050565b6000819050919050565b61032c81610319565b811461033757600080fd5b50565b60008135905061034981610323565b92915050565b600063ffffffff82169050919050565b6103688161034f565b811461037357600080fd5b50565b6000813590506103858161035f565b92915050565b600080600080608085870312156103a5576103a46102b6565b5b60006103b387828801610304565b94505060206103c487828801610304565b93505060406103d58782880161033a565b92505060606103e687828801610376565b91505092959194509250565b6103fb816102db565b82525050565b600060208201905061041660008301846103f2565b92915050565b600081519050919050565b600082825260208201905092915050565b6000819050602082019050919050565b610451816102db565b82525050565b60006104638383610448565b60208301905092915050565b6000602082019050919050565b60006104878261041c565b6104918185610427565b935061049c83610438565b8060005b838110156104cd5781516104b48882610457565b97506104bf8361046f565b9250506001810190506104a0565b5085935050505092915050565b600060208201905081810360008301526104f4818461047c565b905092915050565b600060208284031215610512576105116102b6565b5b60006105208482850161033a565b91505092915050565b61053281610319565b82525050565b6000819050919050565b600061055d6105586105538461034f565b610538565b610319565b9050919050565b61056d81610542565b82525050565b600060608201905061058860008301866103f2565b6105956020830185610529565b6105a26040830184610564565b94935050505056fe60a06040523480156200001157600080fd5b50604051620014c8380380620014c88339818101604052810190620000379190620001f6565b620000576200004b620000c060201b60201c565b620000c860201b60201c565b8073ffffffffffffffffffffffffffffffffffffffff1660808173ffffffffffffffffffffffffffffffffffffffff16815250506000600860006101000a81548160ff02191690836002811115620000b457620000b362000228565b5b02179055505062000257565b600033905090565b60008060009054906101000a900473ffffffffffffffffffffffffffffffffffffffff169050816000806101000a81548173ffffffffffffffffffffffffffffffffffffffff021916908373ffffffffffffffffffffffffffffffffffffffff1602179055508173ffffffffffffffffffffffffffffffffffffffff168173ffffffffffffffffffffffffffffffffffffffff167f8be0079c531659141344cd1fd0a4f28419497f9722a3daafe3b4186f6b6457e060405160405180910390a35050565b600080fd5b600073ffffffffffffffffffffffffffffffffffffffff82169050919050565b6000620001be8262000191565b9050919050565b620001d081620001b1565b8114620001dc57600080fd5b50565b600081519050620001f081620001c5565b92915050565b6000602082840312156200020f576200020e6200018c565b5b60006200021f84828501620001df565b91505092915050565b7f4e487b7100000000000000000000000000000000000000000000000000000000600052602160045260246000fd5b6080516112406200028860003960008181610216015281816102e901528181610567015261098f01526112406000f3fe608060405234801561001057600080fd5b506004361061009e5760003560e01c8063a3a0e93611610066578063a3a0e9361461013a578063c19d93fb14610156578063eea2127414610174578063f2fde38b14610190578063fc0c546a146101ac5761009e565b80633c2f4a97146100a3578063715018a6146100d35780637326c9c0146100dd578063811e539c146100f95780638da5cb5b1461011c575b600080fd5b6100bd60048036038101906100b89190610b5e565b6101ca565b6040516100ca9190610ba4565b60405180910390f35b6100db6101e2565b005b6100f760048036038101906100f29190610beb565b6101f6565b005b61010161044b565b60405161011396959493929190610c42565b60405180910390f35b6101246104a2565b6040516101319190610ca3565b60405180910390f35b610154600480360381019061014f9190610cbe565b6104cb565b005b61015e6106cb565b60405161016b9190610d75565b60405180910390f35b61018e60048036038101906101899190610d90565b6106de565b005b6101aa60048036038101906101a59190610b5e565b61090a565b005b6101b461098d565b6040516101c19190610e42565b60405180910390f35b60076020528060005260406000206000915090505481565b6101ea6109b1565b6101f46000610a2f565b565b60016003015442108061020d575060016004015442115b806102b05750807f000000000000000000000000000000000000000000000000000000000000000073ffffffffffffffffffffffffffffffffffffffff166370a08231336040518263ffffffff1660e01b815260040161026d9190610ca3565b602060405180830381865afa15801561028a573d6000803e3d6000fd5b505050506040513d601f19601f820116820180604052508101906102ae9190610e72565b105b156102e7576040517fbb5d13cb00000000000000000000000000000000000000000000000000000000815260040160405180910390fd5b7f000000000000000000000000000000000000000000000000000000000000000073ffffffffffffffffffffffffffffffffffffffff166323b872dd3330846040518463ffffffff1660e01b815260040161034493929190610e9f565b6020604051808303816000875af1158015610363573d6000803e3d6000fd5b505050506040513d601f19601f820116820180604052508101906103879190610f02565b50806001600201600082825461039d9190610f5e565b9250508190555080600760003373ffffffffffffffffffffffffffffffffffffffff1673ffffffffffffffffffffffffffffffffffffffff16815260200190815260200160002060008282546103f39190610f5e565b925050819055503373ffffffffffffffffffffffffffffffffffffffff167f5e91ea8ea1c46300eb761859be01d7b16d44389ef91e03a163a87413cbf55b95826040516104409190610ba4565b60405180910390a250565b60018060000160009054906101000a900473ffffffffffffffffffffffffffffffffffffffff16908060010154908060020154908060030154908060040154908060050160009054906101000a900460ff16905086565b60008060009054906101000a900473ffffffffffffffffffffffffffffffffffffffff16905090565b600160030154421015806104e457506001600401544211155b8061052e575080600760003373ffffffffffffffffffffffffffffffffffffffff1673ffffffffffffffffffffffffffffffffffffffff1681526020019081526020016000205410155b15610565576040517f16935da100000000000000000000000000000000000000000000000000000000815260040160405180910390fd5b7f000000000000000000000000000000000000000000000000000000000000000073ffffffffffffffffffffffffffffffffffffffff166323b872dd3033846040518463ffffffff1660e01b81526004016105c293929190610e9f565b6020604051808303816000875af11580156105e1573d6000803e3d6000fd5b505050506040513d601f19601f820116820180604052508101906106059190610f02565b50806001600201600082825461061b9190610f92565b9250508190555080600760003373ffffffffffffffffffffffffffffffffffffffff1673ffffffffffffffffffffffffffffffffffffffff16815260200190815260200160002060008282546106719190610f92565b925050819055503373ffffffffffffffffffffffffffffffffffffffff16827f2eeeab891b26a214d1b25749f88a406bdea852bd8c9bfda977e0ef8114c180ba836040516106bf9190610ba4565b60405180910390a35050565b600860009054906101000a900460ff1681565b6106e66109b1565b600042905080821161072d576040517f08c379a000000000000000000000000000000000000000000000000000000000815260040161072490611023565b60405180910390fd5b6000600281111561074157610740610cfe565b5b600860009054906101000a900460ff16600281111561076357610762610cfe565b5b146107a3576040517f08c379a000000000000000000000000000000000000000000000000000000000815260040161079a906110b5565b60405180910390fd5b6040518060c001604052808573ffffffffffffffffffffffffffffffffffffffff1681526020018481526020016000815260200182815260200183815260200160001515815250600160008201518160000160006101000a81548173ffffffffffffffffffffffffffffffffffffffff021916908373ffffffffffffffffffffffffffffffffffffffff1602179055506020820151816001015560408201518160020155606082015181600301556080820151816004015560a08201518160050160006101000a81548160ff0219169083151502179055509050506108878461090a565b6001600860006101000a81548160ff021916908360028111156108ad576108ac610cfe565b5b02179055503373ffffffffffffffffffffffffffffffffffffffff167fcf85b9c681fe962b621d9d8d789f4f940e7736bb5a9a11cb8601a6d02b89f4468483856040516108fc939291906110d5565b60405180910390a250505050565b6109126109b1565b600073ffffffffffffffffffffffffffffffffffffffff168173ffffffffffffffffffffffffffffffffffffffff1603610981576040517f08c379a00000000000000000000000000000000000000000000000000000000081526004016109789061117e565b60405180910390fd5b61098a81610a2f565b50565b7f000000000000000000000000000000000000000000000000000000000000000081565b6109b9610af3565b73ffffffffffffffffffffffffffffffffffffffff166109d76104a2565b73ffffffffffffffffffffffffffffffffffffffff1614610a2d576040517f08c379a0000000000000000000000000000000000000000000000000000000008152600401610a24906111ea565b60405180910390fd5b565b60008060009054906101000a900473ffffffffffffffffffffffffffffffffffffffff169050816000806101000a81548173ffffffffffffffffffffffffffffffffffffffff021916908373ffffffffffffffffffffffffffffffffffffffff1602179055508173ffffffffffffffffffffffffffffffffffffffff168173ffffffffffffffffffffffffffffffffffffffff167f8be0079c531659141344cd1fd0a4f28419497f9722a3daafe3b4186f6b6457e060405160405180910390a35050565b600033905090565b600080fd5b600073ffffffffffffffffffffffffffffffffffffffff82169050919050565b6000610b2b82610b00565b9050919050565b610b3b81610b20565b8114610b4657600080fd5b50565b600081359050610b5881610b32565b92915050565b600060208284031215610b7457610b73610afb565b5b6000610b8284828501610b49565b91505092915050565b6000819050919050565b610b9e81610b8b565b82525050565b6000602082019050610bb96000830184610b95565b92915050565b610bc881610b8b565b8114610bd357600080fd5b50565b600081359050610be581610bbf565b92915050565b600060208284031215610c0157610c00610afb565b5b6000610c0f84828501610bd6565b91505092915050565b610c2181610b20565b82525050565b60008115159050919050565b610c3c81610c27565b82525050565b600060c082019050610c576000830189610c18565b610c646020830188610b95565b610c716040830187610b95565b610c7e6060830186610b95565b610c8b6080830185610b95565b610c9860a0830184610c33565b979650505050505050565b6000602082019050610cb86000830184610c18565b92915050565b60008060408385031215610cd557610cd4610afb565b5b6000610ce385828601610bd6565b9250506020610cf485828601610bd6565b9150509250929050565b7f4e487b7100000000000000000000000000000000000000000000000000000000600052602160045260246000fd5b60038110610d3e57610d3d610cfe565b5b50565b6000819050610d4f82610d2d565b919050565b6000610d5f82610d41565b9050919050565b610d6f81610d54565b82525050565b6000602082019050610d8a6000830184610d66565b92915050565b600080600060608486031215610da957610da8610afb565b5b6000610db786828701610b49565b9350506020610dc886828701610bd6565b9250506040610dd986828701610bd6565b9150509250925092565b6000819050919050565b6000610e08610e03610dfe84610b00565b610de3565b610b00565b9050919050565b6000610e1a82610ded565b9050919050565b6000610e2c82610e0f565b9050919050565b610e3c81610e21565b82525050565b6000602082019050610e576000830184610e33565b92915050565b600081519050610e6c81610bbf565b92915050565b600060208284031215610e8857610e87610afb565b5b6000610e9684828501610e5d565b91505092915050565b6000606082019050610eb46000830186610c18565b610ec16020830185610c18565b610ece6040830184610b95565b949350505050565b610edf81610c27565b8114610eea57600080fd5b50565b600081519050610efc81610ed6565b92915050565b600060208284031215610f1857610f17610afb565b5b6000610f2684828501610eed565b91505092915050565b7f4e487b7100000000000000000000000000000000000000000000000000000000600052601160045260246000fd5b6000610f6982610b8b565b9150610f7483610b8b565b9250828201905080821115610f8c57610f8b610f2f565b5b92915050565b6000610f9d82610b8b565b9150610fa883610b8b565b9250828203905081811115610fc057610fbf610f2f565b5b92915050565b600082825260208201905092915050565b7f456e642074696d65206973206c657373207468616e2053746172742074696d65600082015250565b600061100d602083610fc6565b915061101882610fd7565b602082019050919050565b6000602082019050818103600083015261103c81611000565b9050919050565b7f43616d706169676e2068617320616c7265616479206265656e206c61756e636860008201527f6564000000000000000000000000000000000000000000000000000000000000602082015250565b600061109f602283610fc6565b91506110aa82611043565b604082019050919050565b600060208201905081810360008301526110ce81611092565b9050919050565b60006060820190506110ea6000830186610b95565b6110f76020830185610b95565b6111046040830184610b95565b949350505050565b7f4f776e61626c653a206e6577206f776e657220697320746865207a65726f206160008201527f6464726573730000000000000000000000000000000000000000000000000000602082015250565b6000611168602683610fc6565b91506111738261110c565b604082019050919050565b600060208201905081810360008301526111978161115b565b9050919050565b7f4f776e61626c653a2063616c6c6572206973206e6f7420746865206f776e6572600082015250565b60006111d4602083610fc6565b91506111df8261119e565b602082019050919050565b60006020820190508181036000830152611203816111c7565b905091905056fea2646970667358221220a3475ec345a19d9ead561d4b755a8afac54c3fbe972dc913ea2e3b36f7674ac264736f6c63430008110033a26469706673582212202b3a0b2c34a1eddd2d41835e4ef107a60a7ab517c0ba442cad31e40a0ec2ca1864736f6c63430008110033",
  "linkReferences": {},
  "deployedLinkReferences": {}
}