{
  "_format": "hh-sol-artifact-1",
  "contractName": "Crowdlend",
  "sourceName": "contracts/Crowdlend.sol",
  "abi": [
    {
      "inputs": [
        {
          "internalType": "address",
          "name": "_token",
          "type": "address"
        }
      ],
      "stateMutability": "nonpayable",
      "type": "constructor"
    },
    {
      "inputs": [],
      "name": "Crowdlend__ErrorClaiming",
      "type": "error"
    },
    {
      "inputs": [],
      "name": "Crowdlend__ErrorPledging",
      "type": "error"
    },
    {
      "inputs": [],
      "name": "Crowdlend__ErrorRepaying",
      "type": "error"
    },
    {
      "inputs": [],
      "name": "Crowdlend__ErrorUnpledging",
      "type": "error"
    },
    {
      "inputs": [],
      "name": "Crowdlend__InvalidDate",
      "type": "error"
    },
    {
      "anonymous": false,
      "inputs": [],
      "name": "Cancel",
      "type": "event"
    },
    {
      "anonymous": false,
      "inputs": [
        {
          "indexed": true,
          "internalType": "uint256",
          "name": "amount",
          "type": "uint256"
        }
      ],
      "name": "Claim",
      "type": "event"
    },
    {
      "anonymous": false,
      "inputs": [
        {
          "indexed": true,
          "internalType": "address",
          "name": "creator",
          "type": "address"
        },
        {
          "indexed": false,
          "internalType": "uint32",
          "name": "apy",
          "type": "uint32"
        },
        {
          "indexed": false,
          "internalType": "uint256",
          "name": "goal",
          "type": "uint256"
        },
        {
          "indexed": false,
          "internalType": "uint256",
          "name": "startAt",
          "type": "uint256"
        },
        {
          "indexed": false,
          "internalType": "uint256",
          "name": "endAt",
          "type": "uint256"
        }
      ],
      "name": "Launch",
      "type": "event"
    },
    {
      "anonymous": false,
      "inputs": [
        {
          "indexed": true,
          "internalType": "address",
          "name": "previousOwner",
          "type": "address"
        },
        {
          "indexed": true,
          "internalType": "address",
          "name": "newOwner",
          "type": "address"
        }
      ],
      "name": "OwnershipTransferred",
      "type": "event"
    },
    {
      "anonymous": false,
      "inputs": [
        {
          "indexed": true,
          "internalType": "address",
          "name": "caller",
          "type": "address"
        },
        {
          "indexed": false,
          "internalType": "uint256",
          "name": "amount",
          "type": "uint256"
        }
      ],
      "name": "Pledge",
      "type": "event"
    },
    {
      "anonymous": false,
      "inputs": [
        {
          "indexed": true,
          "internalType": "address",
          "name": "caller",
          "type": "address"
        },
        {
          "indexed": false,
          "internalType": "uint256",
          "name": "amount",
          "type": "uint256"
        }
      ],
      "name": "Repay",
      "type": "event"
    },
    {
      "anonymous": false,
      "inputs": [
        {
          "indexed": true,
          "internalType": "address",
          "name": "caller",
          "type": "address"
        },
        {
          "indexed": false,
          "internalType": "uint256",
          "name": "amount",
          "type": "uint256"
        }
      ],
      "name": "Unpledge",
      "type": "event"
    },
    {
      "inputs": [],
      "name": "campaign",
      "outputs": [
        {
          "internalType": "address",
          "name": "creator",
          "type": "address"
        },
        {
          "internalType": "uint32",
          "name": "apy",
          "type": "uint32"
        },
        {
          "internalType": "uint256",
          "name": "goal",
          "type": "uint256"
        },
        {
          "internalType": "uint256",
          "name": "pledged",
          "type": "uint256"
        },
        {
          "internalType": "uint256",
          "name": "startAt",
          "type": "uint256"
        },
        {
          "internalType": "uint256",
          "name": "endAt",
          "type": "uint256"
        },
        {
          "internalType": "bool",
          "name": "claimed",
          "type": "bool"
        }
      ],
      "stateMutability": "view",
      "type": "function"
    },
    {
      "inputs": [],
      "name": "claimFunds",
      "outputs": [],
      "stateMutability": "nonpayable",
      "type": "function"
    },
    {
      "inputs": [],
      "name": "claimPledged",
      "outputs": [],
      "stateMutability": "nonpayable",
      "type": "function"
    },
    {
      "inputs": [
        {
          "internalType": "address",
          "name": "_creator",
          "type": "address"
        },
        {
          "internalType": "uint32",
          "name": "_apy",
          "type": "uint32"
        },
        {
          "internalType": "uint256",
          "name": "_goal",
          "type": "uint256"
        },
        {
          "internalType": "uint256",
          "name": "_startAt",
          "type": "uint256"
        },
        {
          "internalType": "uint256",
          "name": "_endAt",
          "type": "uint256"
        }
      ],
      "name": "launch",
      "outputs": [],
      "stateMutability": "nonpayable",
      "type": "function"
    },
    {
      "inputs": [],
      "name": "owner",
      "outputs": [
        {
          "internalType": "address",
          "name": "",
          "type": "address"
        }
      ],
      "stateMutability": "view",
      "type": "function"
    },
    {
      "inputs": [
        {
          "internalType": "uint256",
          "name": "_amount",
          "type": "uint256"
        }
      ],
      "name": "pledge",
      "outputs": [],
      "stateMutability": "nonpayable",
      "type": "function"
    },
    {
      "inputs": [
        {
          "internalType": "address",
          "name": "",
          "type": "address"
        }
      ],
      "name": "pledgedAmount",
      "outputs": [
        {
          "internalType": "uint256",
          "name": "",
          "type": "uint256"
        }
      ],
      "stateMutability": "view",
      "type": "function"
    },
    {
      "inputs": [],
      "name": "renounceOwnership",
      "outputs": [],
      "stateMutability": "nonpayable",
      "type": "function"
    },
    {
      "inputs": [
        {
          "internalType": "uint256",
          "name": "_amount",
          "type": "uint256"
        }
      ],
      "name": "repay",
      "outputs": [],
      "stateMutability": "nonpayable",
      "type": "function"
    },
    {
      "inputs": [],
      "name": "state",
      "outputs": [
        {
          "internalType": "enum CampaignState",
          "name": "",
          "type": "uint8"
        }
      ],
      "stateMutability": "view",
      "type": "function"
    },
    {
      "inputs": [],
      "name": "token",
      "outputs": [
        {
          "internalType": "contract IERC20",
          "name": "",
          "type": "address"
        }
      ],
      "stateMutability": "view",
      "type": "function"
    },
    {
      "inputs": [],
      "name": "totalPledgedAmount",
      "outputs": [
        {
          "internalType": "uint256",
          "name": "",
          "type": "uint256"
        }
      ],
      "stateMutability": "view",
      "type": "function"
    },
    {
      "inputs": [
        {
          "internalType": "address",
          "name": "newOwner",
          "type": "address"
        }
      ],
      "name": "transferOwnership",
      "outputs": [],
      "stateMutability": "nonpayable",
      "type": "function"
    },
    {
      "inputs": [
        {
          "internalType": "uint256",
          "name": "_amount",
          "type": "uint256"
        }
      ],
      "name": "unPledge",
      "outputs": [],
      "stateMutability": "nonpayable",
      "type": "function"
    }
  ],
  "bytecode": "0x60a06040523480156200001157600080fd5b5060405162001c4138038062001c418339818101604052810190620000379190620001f6565b620000576200004b620000c060201b60201c565b620000c860201b60201c565b8073ffffffffffffffffffffffffffffffffffffffff1660808173ffffffffffffffffffffffffffffffffffffffff16815250506000600960006101000a81548160ff02191690836002811115620000b457620000b362000228565b5b02179055505062000257565b600033905090565b60008060009054906101000a900473ffffffffffffffffffffffffffffffffffffffff169050816000806101000a81548173ffffffffffffffffffffffffffffffffffffffff021916908373ffffffffffffffffffffffffffffffffffffffff1602179055508173ffffffffffffffffffffffffffffffffffffffff168173ffffffffffffffffffffffffffffffffffffffff167f8be0079c531659141344cd1fd0a4f28419497f9722a3daafe3b4186f6b6457e060405160405180910390a35050565b600080fd5b600073ffffffffffffffffffffffffffffffffffffffff82169050919050565b6000620001be8262000191565b9050919050565b620001d081620001b1565b8114620001dc57600080fd5b50565b600081519050620001f081620001c5565b92915050565b6000602082840312156200020f576200020e6200018c565b5b60006200021f84828501620001df565b91505092915050565b7f4e487b7100000000000000000000000000000000000000000000000000000000600052602160045260246000fd5b60805161199d620002a4600039600081816103700152818161040f0152818161057e015281816108dd015281816109ce01528181610c8e01528181610dfb015261100e015261199d6000f3fe608060405234801561001057600080fd5b50600436106100ea5760003560e01c80638da5cb5b1161008c578063b761f24b11610066578063b761f24b146101f1578063c19d93fb1461020d578063f2fde38b1461022b578063fc0c546a14610247576100ea565b80638da5cb5b146101ab5780639c42df66146101c9578063ac307773146101e7576100ea565b806353aa13d8116100c857806353aa13d814610145578063715018a6146101615780637326c9c01461016b578063811e539c14610187576100ea565b806303fbcd8f146100ef578063371fd8e6146100f95780633c2f4a9714610115575b600080fd5b6100f7610265565b005b610113600480360381019061010e9190611277565b6104fb565b005b61012f600480360381019061012a9190611302565b61066e565b60405161013c919061133e565b60405180910390f35b61015f600480360381019061015a9190611395565b610686565b005b6101696108b8565b005b61018560048036038101906101809190611277565b6108cc565b005b61018f610b49565b6040516101a29796959493929190611449565b60405180910390f35b6101b3610bb6565b6040516101c091906114b8565b60405180910390f35b6101d1610bdf565b6040516101de919061133e565b60405180910390f35b6101ef610be5565b005b61020b60048036038101906102069190611277565b610d5b565b005b610215610f76565b604051610222919061154a565b60405180910390f35b61024560048036038101906102409190611302565b610f89565b005b61024f61100c565b60405161025c91906115c4565b60405180910390f35b60016004015442116102a3576040517f8e53561400000000000000000000000000000000000000000000000000000000815260040160405180910390fd5b6000600760003373ffffffffffffffffffffffffffffffffffffffff1673ffffffffffffffffffffffffffffffffffffffff1681526020019081526020016000205490506000600760003373ffffffffffffffffffffffffffffffffffffffff1673ffffffffffffffffffffffffffffffffffffffff168152602001908152602001600020819055506000606482600160000160149054906101000a900463ffffffff1663ffffffff16610357919061160e565b610361919061167f565b8261036c91906116b0565b90507f000000000000000000000000000000000000000000000000000000000000000073ffffffffffffffffffffffffffffffffffffffff1663095ea7b330836040518363ffffffff1660e01b81526004016103c99291906116e4565b6020604051808303816000875af11580156103e8573d6000803e3d6000fd5b505050506040513d601f19601f8201168201806040525081019061040c9190611739565b507f000000000000000000000000000000000000000000000000000000000000000073ffffffffffffffffffffffffffffffffffffffff166323b872dd3033846040518463ffffffff1660e01b815260040161046a93929190611766565b6020604051808303816000875af1158015610489573d6000803e3d6000fd5b505050506040513d601f19601f820116820180604052508101906104ad9190611739565b5081600160020160008282546104c3919061179d565b92505081905550817f7bb2b3c10797baccb6f8c4791f1edd6ca2f0d028ee0eda64b01a9a57e3a653f760405160405180910390a25050565b6001600201546064600160000160149054906101000a900463ffffffff1663ffffffff1660016002015461052f919061160e565b610539919061167f565b61054391906116b0565b81101561057c576040517f113b9d6400000000000000000000000000000000000000000000000000000000815260040160405180910390fd5b7f000000000000000000000000000000000000000000000000000000000000000073ffffffffffffffffffffffffffffffffffffffff166323b872dd3330846040518463ffffffff1660e01b81526004016105d993929190611766565b6020604051808303816000875af11580156105f8573d6000803e3d6000fd5b505050506040513d601f19601f8201168201806040525081019061061c9190611739565b503373ffffffffffffffffffffffffffffffffffffffff167f5c16de4f8b59bd9caf0f49a545f25819a895ed223294290b408242e72a59423182604051610663919061133e565b60405180910390a250565b60076020528060005260406000206000915090505481565b61068e611030565b818110806106d05750600060028111156106ab576106aa6114d3565b5b600960009054906101000a900460ff1660028111156106cd576106cc6114d3565b5b14155b15610707576040517f90ff377900000000000000000000000000000000000000000000000000000000815260040160405180910390fd5b61071160036110ae565b6040518060e001604052808673ffffffffffffffffffffffffffffffffffffffff1681526020018563ffffffff1681526020018481526020016000815260200183815260200182815260200160001515815250600160008201518160000160006101000a81548173ffffffffffffffffffffffffffffffffffffffff021916908373ffffffffffffffffffffffffffffffffffffffff16021790555060208201518160000160146101000a81548163ffffffff021916908363ffffffff16021790555060408201518160010155606082015181600201556080820151816003015560a0820151816004015560c08201518160050160006101000a81548160ff02191690831515021790555090505061082960046110ae565b61083285610f89565b6001600960006101000a81548160ff02191690836002811115610858576108576114d3565b5b02179055503373ffffffffffffffffffffffffffffffffffffffff167f4e136db1bdce71f956c36a3e4ce8fae970fd6d5527a3e832551b5ac5b951243c858585856040516108a994939291906117d1565b60405180910390a25050505050565b6108c0611030565b6108ca6000611147565b565b6001600301544211806109775750807f000000000000000000000000000000000000000000000000000000000000000073ffffffffffffffffffffffffffffffffffffffff166370a08231336040518263ffffffff1660e01b815260040161093491906114b8565b602060405180830381865afa158015610951573d6000803e3d6000fd5b505050506040513d601f19601f82011682018060405250810190610975919061182b565b105b80610995575060018001548160016002015461099391906116b0565b115b156109cc576040517fbb5d13cb00000000000000000000000000000000000000000000000000000000815260040160405180910390fd5b7f000000000000000000000000000000000000000000000000000000000000000073ffffffffffffffffffffffffffffffffffffffff166323b872dd3330846040518463ffffffff1660e01b8152600401610a2993929190611766565b6020604051808303816000875af1158015610a48573d6000803e3d6000fd5b505050506040513d601f19601f82011682018060405250810190610a6c9190611739565b508060016002016000828254610a8291906116b0565b9250508190555080600760003373ffffffffffffffffffffffffffffffffffffffff1673ffffffffffffffffffffffffffffffffffffffff1681526020019081526020016000206000828254610ad891906116b0565b925050819055508060086000828254610af191906116b0565b925050819055503373ffffffffffffffffffffffffffffffffffffffff167f5e91ea8ea1c46300eb761859be01d7b16d44389ef91e03a163a87413cbf55b9582604051610b3e919061133e565b60405180910390a250565b60018060000160009054906101000a900473ffffffffffffffffffffffffffffffffffffffff16908060000160149054906101000a900463ffffffff16908060010154908060020154908060030154908060040154908060050160009054906101000a900460ff16905087565b60008060009054906101000a900473ffffffffffffffffffffffffffffffffffffffff16905090565b60085481565b610bed611030565b600160030154421080610c095750600180015460016002015414155b80610c235750600160050160009054906101000a900460ff165b15610c5a576040517f8e53561400000000000000000000000000000000000000000000000000000000815260040160405180910390fd5b60018060050160006101000a81548160ff0219169083151502179055506000600160020154905060006001600201819055507f000000000000000000000000000000000000000000000000000000000000000073ffffffffffffffffffffffffffffffffffffffff1663a9059cbb33836040518363ffffffff1660e01b8152600401610ce79291906116e4565b6020604051808303816000875af1158015610d06573d6000803e3d6000fd5b505050506040513d601f19601f82011682018060405250810190610d2a9190611739565b50807f7bb2b3c10797baccb6f8c4791f1edd6ca2f0d028ee0eda64b01a9a57e3a653f760405160405180910390a250565b6001600301544210158015610d7857506001800154600160020154145b80610dc2575080600760003373ffffffffffffffffffffffffffffffffffffffff1673ffffffffffffffffffffffffffffffffffffffff1681526020019081526020016000205410155b15610df9576040517f16935da100000000000000000000000000000000000000000000000000000000815260040160405180910390fd5b7f000000000000000000000000000000000000000000000000000000000000000073ffffffffffffffffffffffffffffffffffffffff166323b872dd3033846040518463ffffffff1660e01b8152600401610e5693929190611766565b6020604051808303816000875af1158015610e75573d6000803e3d6000fd5b505050506040513d601f19601f82011682018060405250810190610e999190611739565b508060016002016000828254610eaf919061179d565b9250508190555080600760003373ffffffffffffffffffffffffffffffffffffffff1673ffffffffffffffffffffffffffffffffffffffff1681526020019081526020016000206000828254610f05919061179d565b925050819055508060086000828254610f1e919061179d565b925050819055503373ffffffffffffffffffffffffffffffffffffffff167f0cdb7e259318c69f16c8770399e09f5531befac5033bf7c447e3bc296116929582604051610f6b919061133e565b60405180910390a250565b600960009054906101000a900460ff1681565b610f91611030565b600073ffffffffffffffffffffffffffffffffffffffff168173ffffffffffffffffffffffffffffffffffffffff1603611000576040517f08c379a0000000000000000000000000000000000000000000000000000000008152600401610ff7906118db565b60405180910390fd5b61100981611147565b50565b7f000000000000000000000000000000000000000000000000000000000000000081565b61103861120b565b73ffffffffffffffffffffffffffffffffffffffff16611056610bb6565b73ffffffffffffffffffffffffffffffffffffffff16146110ac576040517f08c379a00000000000000000000000000000000000000000000000000000000081526004016110a390611947565b60405180910390fd5b565b611144816040516024016110c2919061133e565b6040516020818303038152906040527ff82c50f1000000000000000000000000000000000000000000000000000000007bffffffffffffffffffffffffffffffffffffffffffffffffffffffff19166020820180517bffffffffffffffffffffffffffffffffffffffffffffffffffffffff8381831617835250505050611213565b50565b60008060009054906101000a900473ffffffffffffffffffffffffffffffffffffffff169050816000806101000a81548173ffffffffffffffffffffffffffffffffffffffff021916908373ffffffffffffffffffffffffffffffffffffffff1602179055508173ffffffffffffffffffffffffffffffffffffffff168173ffffffffffffffffffffffffffffffffffffffff167f8be0079c531659141344cd1fd0a4f28419497f9722a3daafe3b4186f6b6457e060405160405180910390a35050565b600033905090565b60008151905060006a636f6e736f6c652e6c6f679050602083016000808483855afa5050505050565b600080fd5b6000819050919050565b61125481611241565b811461125f57600080fd5b50565b6000813590506112718161124b565b92915050565b60006020828403121561128d5761128c61123c565b5b600061129b84828501611262565b91505092915050565b600073ffffffffffffffffffffffffffffffffffffffff82169050919050565b60006112cf826112a4565b9050919050565b6112df816112c4565b81146112ea57600080fd5b50565b6000813590506112fc816112d6565b92915050565b6000602082840312156113185761131761123c565b5b6000611326848285016112ed565b91505092915050565b61133881611241565b82525050565b6000602082019050611353600083018461132f565b92915050565b600063ffffffff82169050919050565b61137281611359565b811461137d57600080fd5b50565b60008135905061138f81611369565b92915050565b600080600080600060a086880312156113b1576113b061123c565b5b60006113bf888289016112ed565b95505060206113d088828901611380565b94505060406113e188828901611262565b93505060606113f288828901611262565b925050608061140388828901611262565b9150509295509295909350565b611419816112c4565b82525050565b61142881611359565b82525050565b60008115159050919050565b6114438161142e565b82525050565b600060e08201905061145e600083018a611410565b61146b602083018961141f565b611478604083018861132f565b611485606083018761132f565b611492608083018661132f565b61149f60a083018561132f565b6114ac60c083018461143a565b98975050505050505050565b60006020820190506114cd6000830184611410565b92915050565b7f4e487b7100000000000000000000000000000000000000000000000000000000600052602160045260246000fd5b60038110611513576115126114d3565b5b50565b600081905061152482611502565b919050565b600061153482611516565b9050919050565b61154481611529565b82525050565b600060208201905061155f600083018461153b565b92915050565b6000819050919050565b600061158a611585611580846112a4565b611565565b6112a4565b9050919050565b600061159c8261156f565b9050919050565b60006115ae82611591565b9050919050565b6115be816115a3565b82525050565b60006020820190506115d960008301846115b5565b92915050565b7f4e487b7100000000000000000000000000000000000000000000000000000000600052601160045260246000fd5b600061161982611241565b915061162483611241565b925082820261163281611241565b91508282048414831517611649576116486115df565b5b5092915050565b7f4e487b7100000000000000000000000000000000000000000000000000000000600052601260045260246000fd5b600061168a82611241565b915061169583611241565b9250826116a5576116a4611650565b5b828204905092915050565b60006116bb82611241565b91506116c683611241565b92508282019050808211156116de576116dd6115df565b5b92915050565b60006040820190506116f96000830185611410565b611706602083018461132f565b9392505050565b6117168161142e565b811461172157600080fd5b50565b6000815190506117338161170d565b92915050565b60006020828403121561174f5761174e61123c565b5b600061175d84828501611724565b91505092915050565b600060608201905061177b6000830186611410565b6117886020830185611410565b611795604083018461132f565b949350505050565b60006117a882611241565b91506117b383611241565b92508282039050818111156117cb576117ca6115df565b5b92915050565b60006080820190506117e6600083018761141f565b6117f3602083018661132f565b611800604083018561132f565b61180d606083018461132f565b95945050505050565b6000815190506118258161124b565b92915050565b6000602082840312156118415761184061123c565b5b600061184f84828501611816565b91505092915050565b600082825260208201905092915050565b7f4f776e61626c653a206e6577206f776e657220697320746865207a65726f206160008201527f6464726573730000000000000000000000000000000000000000000000000000602082015250565b60006118c5602683611858565b91506118d082611869565b604082019050919050565b600060208201905081810360008301526118f4816118b8565b9050919050565b7f4f776e61626c653a2063616c6c6572206973206e6f7420746865206f776e6572600082015250565b6000611931602083611858565b915061193c826118fb565b602082019050919050565b6000602082019050818103600083015261196081611924565b905091905056fea2646970667358221220f22a5d8ebeb504dae28a751e2ab57034bd688d83c702f595c62ca18d051a2d7f64736f6c63430008110033",
  "linkReferences": {},
  "deployedLinkReferences": {}
}