{
  "_format": "hh-sol-artifact-1",
  "contractName": "CrowdlendFactory",
  "sourceName": "contracts/CrowdlendFactory.sol",
  "abi": [
    {
      "inputs": [],
      "stateMutability": "nonpayable",
      "type": "constructor"
    },
    {
      "inputs": [
        {
          "internalType": "uint256",
          "name": "",
          "type": "uint256"
        }
      ],
      "name": "allCampaigns",
      "outputs": [
        {
          "internalType": "address",
          "name": "",
          "type": "address"
        }
      ],
      "stateMutability": "view",
      "type": "function"
    },
    {
      "inputs": [
        {
          "internalType": "address",
          "name": "_owner",
          "type": "address"
        },
        {
          "internalType": "uint32",
          "name": "_apy",
          "type": "uint32"
        },
        {
          "internalType": "address",
          "name": "_token",
          "type": "address"
        },
        {
          "internalType": "uint256",
          "name": "_goal",
          "type": "uint256"
        },
        {
          "internalType": "uint256",
          "name": "_startAt",
          "type": "uint256"
        },
        {
          "internalType": "uint256",
          "name": "_endAt",
          "type": "uint256"
        }
      ],
      "name": "createCampaign",
      "outputs": [
        {
          "internalType": "address",
          "name": "campaignAddress",
          "type": "address"
        }
      ],
      "stateMutability": "nonpayable",
      "type": "function"
    },
    {
      "inputs": [],
      "name": "getAllCampaigns",
      "outputs": [
        {
          "internalType": "address[]",
          "name": "",
          "type": "address[]"
        }
      ],
      "stateMutability": "view",
      "type": "function"
    }
  ],
  "bytecode": "0x608060405234801561001057600080fd5b50612157806100206000396000f3fe608060405234801561001057600080fd5b50600436106100415760003560e01c806374a345891461004657806386cdf60414610076578063a509f4d114610094575b600080fd5b610060600480360381019061005b9190610391565b6100c4565b60405161006d919061042d565b60405180910390f35b61007e6101e1565b60405161008b9190610506565b60405180910390f35b6100ae60048036038101906100a99190610528565b61026f565b6040516100bb919061042d565b60405180910390f35b600080856040516100d4906102ae565b6100de919061042d565b604051809103906000f0801580156100fa573d6000803e3d6000fd5b5090508073ffffffffffffffffffffffffffffffffffffffff166353aa13d889898888886040518663ffffffff1660e01b815260040161013e959493929190610573565b600060405180830381600087803b15801561015857600080fd5b505af115801561016c573d6000803e3d6000fd5b505050508091506000829080600181540180825580915050600190039060005260206000200160009091909190916101000a81548173ffffffffffffffffffffffffffffffffffffffff021916908373ffffffffffffffffffffffffffffffffffffffff160217905550509695505050505050565b6060600080548060200260200160405190810160405280929190818152602001828054801561026557602002820191906000526020600020905b8160009054906101000a900473ffffffffffffffffffffffffffffffffffffffff1673ffffffffffffffffffffffffffffffffffffffff168152602001906001019080831161021b575b5050505050905090565b6000818154811061027f57600080fd5b906000526020600020016000915054906101000a900473ffffffffffffffffffffffffffffffffffffffff1681565b611b5b80620005c783390190565b600080fd5b600073ffffffffffffffffffffffffffffffffffffffff82169050919050565b60006102ec826102c1565b9050919050565b6102fc816102e1565b811461030757600080fd5b50565b600081359050610319816102f3565b92915050565b600063ffffffff82169050919050565b6103388161031f565b811461034357600080fd5b50565b6000813590506103558161032f565b92915050565b6000819050919050565b61036e8161035b565b811461037957600080fd5b50565b60008135905061038b81610365565b92915050565b60008060008060008060c087890312156103ae576103ad6102bc565b5b60006103bc89828a0161030a565b96505060206103cd89828a01610346565b95505060406103de89828a0161030a565b94505060606103ef89828a0161037c565b935050608061040089828a0161037c565b92505060a061041189828a0161037c565b9150509295509295509295565b610427816102e1565b82525050565b6000602082019050610442600083018461041e565b92915050565b600081519050919050565b600082825260208201905092915050565b6000819050602082019050919050565b61047d816102e1565b82525050565b600061048f8383610474565b60208301905092915050565b6000602082019050919050565b60006104b382610448565b6104bd8185610453565b93506104c883610464565b8060005b838110156104f95781516104e08882610483565b97506104eb8361049b565b9250506001810190506104cc565b5085935050505092915050565b6000602082019050818103600083015261052081846104a8565b905092915050565b60006020828403121561053e5761053d6102bc565b5b600061054c8482850161037c565b91505092915050565b61055e8161031f565b82525050565b61056d8161035b565b82525050565b600060a082019050610588600083018861041e565b6105956020830187610555565b6105a26040830186610564565b6105af6060830185610564565b6105bc6080830184610564565b969550505050505056fe60a06040523480156200001157600080fd5b5060405162001b5b38038062001b5b8339818101604052810190620000379190620001f6565b620000576200004b620000c060201b60201c565b620000c860201b60201c565b8073ffffffffffffffffffffffffffffffffffffffff1660808173ffffffffffffffffffffffffffffffffffffffff16815250506000600860006101000a81548160ff02191690836002811115620000b457620000b362000228565b5b02179055505062000257565b600033905090565b60008060009054906101000a900473ffffffffffffffffffffffffffffffffffffffff169050816000806101000a81548173ffffffffffffffffffffffffffffffffffffffff021916908373ffffffffffffffffffffffffffffffffffffffff1602179055508173ffffffffffffffffffffffffffffffffffffffff168173ffffffffffffffffffffffffffffffffffffffff167f8be0079c531659141344cd1fd0a4f28419497f9722a3daafe3b4186f6b6457e060405160405180910390a35050565b600080fd5b600073ffffffffffffffffffffffffffffffffffffffff82169050919050565b6000620001be8262000191565b9050919050565b620001d081620001b1565b8114620001dc57600080fd5b50565b600081519050620001f081620001c5565b92915050565b6000602082840312156200020f576200020e6200018c565b5b60006200021f84828501620001df565b91505092915050565b7f4e487b7100000000000000000000000000000000000000000000000000000000600052602160045260246000fd5b6080516118b0620002ab60003960008181610337015281816103d601528181610554015281816105f3015281816108ff015281816109f001528181610c7701528181610de90152610fe301526118b06000f3fe608060405234801561001057600080fd5b50600436106100cf5760003560e01c8063811e539c1161008c578063b761f24b11610066578063b761f24b146101b8578063c19d93fb146101d4578063f2fde38b146101f2578063fc0c546a1461020e576100cf565b8063811e539c1461016c5780638da5cb5b14610190578063ac307773146101ae576100cf565b806303fbcd8f146100d4578063371fd8e6146100de5780633c2f4a97146100fa57806353aa13d81461012a578063715018a6146101465780637326c9c014610150575b600080fd5b6100dc61022c565b005b6100f860048036038101906100f3919061118a565b6104c2565b005b610114600480360381019061010f9190611215565b610695565b6040516101219190611251565b60405180910390f35b610144600480360381019061013f91906112a8565b6106ad565b005b61014e6108cb565b005b61016a6004803603810190610165919061118a565b6108df565b005b610174610b52565b604051610187979695949392919061135c565b60405180910390f35b610198610bbf565b6040516101a591906113cb565b60405180910390f35b6101b6610be8565b005b6101d260048036038101906101cd919061118a565b610d4d565b005b6101dc610f4b565b6040516101e9919061145d565b60405180910390f35b61020c60048036038101906102079190611215565b610f5e565b005b610216610fe1565b60405161022391906114d7565b60405180910390f35b600160040154421161026a576040517f8e53561400000000000000000000000000000000000000000000000000000000815260040160405180910390fd5b6000600760003373ffffffffffffffffffffffffffffffffffffffff1673ffffffffffffffffffffffffffffffffffffffff1681526020019081526020016000205490506000600760003373ffffffffffffffffffffffffffffffffffffffff1673ffffffffffffffffffffffffffffffffffffffff168152602001908152602001600020819055506000606482600160000160149054906101000a900463ffffffff1663ffffffff1661031e9190611521565b6103289190611592565b8261033391906115c3565b90507f000000000000000000000000000000000000000000000000000000000000000073ffffffffffffffffffffffffffffffffffffffff1663095ea7b330836040518363ffffffff1660e01b81526004016103909291906115f7565b6020604051808303816000875af11580156103af573d6000803e3d6000fd5b505050506040513d601f19601f820116820180604052508101906103d3919061164c565b507f000000000000000000000000000000000000000000000000000000000000000073ffffffffffffffffffffffffffffffffffffffff166323b872dd3033846040518463ffffffff1660e01b815260040161043193929190611679565b6020604051808303816000875af1158015610450573d6000803e3d6000fd5b505050506040513d601f19601f82011682018060405250810190610474919061164c565b50806001600201600082825461048a91906116b0565b92505081905550817f7bb2b3c10797baccb6f8c4791f1edd6ca2f0d028ee0eda64b01a9a57e3a653f760405160405180910390a25050565b60016004015442108061051b57506001600201546064600160000160149054906101000a900463ffffffff1663ffffffff166001600201546105049190611521565b61050e9190611592565b61051891906115c3565b81105b15610552576040517f8e53561400000000000000000000000000000000000000000000000000000000815260040160405180910390fd5b7f000000000000000000000000000000000000000000000000000000000000000073ffffffffffffffffffffffffffffffffffffffff1663095ea7b330836040518363ffffffff1660e01b81526004016105ad9291906115f7565b6020604051808303816000875af11580156105cc573d6000803e3d6000fd5b505050506040513d601f19601f820116820180604052508101906105f0919061164c565b507f000000000000000000000000000000000000000000000000000000000000000073ffffffffffffffffffffffffffffffffffffffff166323b872dd3330846040518463ffffffff1660e01b815260040161064e93929190611679565b6020604051808303816000875af115801561066d573d6000803e3d6000fd5b505050506040513d601f19601f82011682018060405250810190610691919061164c565b5050565b60076020528060005260406000206000915090505481565b6106b5611005565b818110806106f75750600060028111156106d2576106d16113e6565b5b600860009054906101000a900460ff1660028111156106f4576106f36113e6565b5b14155b1561072e576040517f90ff377900000000000000000000000000000000000000000000000000000000815260040160405180910390fd5b6040518060e001604052808673ffffffffffffffffffffffffffffffffffffffff1681526020018563ffffffff1681526020018481526020016000815260200183815260200182815260200160001515815250600160008201518160000160006101000a81548173ffffffffffffffffffffffffffffffffffffffff021916908373ffffffffffffffffffffffffffffffffffffffff16021790555060208201518160000160146101000a81548163ffffffff021916908363ffffffff16021790555060408201518160010155606082015181600201556080820151816003015560a0820151816004015560c08201518160050160006101000a81548160ff02191690831515021790555090505061084585610f5e565b6001600860006101000a81548160ff0219169083600281111561086b5761086a6113e6565b5b02179055503373ffffffffffffffffffffffffffffffffffffffff167f4e136db1bdce71f956c36a3e4ce8fae970fd6d5527a3e832551b5ac5b951243c858585856040516108bc94939291906116e4565b60405180910390a25050505050565b6108d3611005565b6108dd6000611083565b565b6001600301544210806108f6575060016004015442115b806109995750807f000000000000000000000000000000000000000000000000000000000000000073ffffffffffffffffffffffffffffffffffffffff166370a08231336040518263ffffffff1660e01b815260040161095691906113cb565b602060405180830381865afa158015610973573d6000803e3d6000fd5b505050506040513d601f19601f82011682018060405250810190610997919061173e565b105b806109b757506001800154816001600201546109b591906115c3565b115b156109ee576040517fbb5d13cb00000000000000000000000000000000000000000000000000000000815260040160405180910390fd5b7f000000000000000000000000000000000000000000000000000000000000000073ffffffffffffffffffffffffffffffffffffffff166323b872dd3330846040518463ffffffff1660e01b8152600401610a4b93929190611679565b6020604051808303816000875af1158015610a6a573d6000803e3d6000fd5b505050506040513d601f19601f82011682018060405250810190610a8e919061164c565b508060016002016000828254610aa491906115c3565b9250508190555080600760003373ffffffffffffffffffffffffffffffffffffffff1673ffffffffffffffffffffffffffffffffffffffff1681526020019081526020016000206000828254610afa91906115c3565b925050819055503373ffffffffffffffffffffffffffffffffffffffff167f5e91ea8ea1c46300eb761859be01d7b16d44389ef91e03a163a87413cbf55b9582604051610b479190611251565b60405180910390a250565b60018060000160009054906101000a900473ffffffffffffffffffffffffffffffffffffffff16908060000160149054906101000a900463ffffffff16908060010154908060020154908060030154908060040154908060050160009054906101000a900460ff16905087565b60008060009054906101000a900473ffffffffffffffffffffffffffffffffffffffff16905090565b610bf0611005565b600160030154421080610c07575060016004015442115b80610c215750600160050160009054906101000a900460ff165b15610c58576040517fbb5d13cb00000000000000000000000000000000000000000000000000000000815260040160405180910390fd5b60018060050160006101000a81548160ff0219169083151502179055507f000000000000000000000000000000000000000000000000000000000000000073ffffffffffffffffffffffffffffffffffffffff1663a9059cbb336001600201546040518363ffffffff1660e01b8152600401610cd59291906115f7565b6020604051808303816000875af1158015610cf4573d6000803e3d6000fd5b505050506040513d601f19601f82011682018060405250810190610d18919061164c565b506001600201547f7bb2b3c10797baccb6f8c4791f1edd6ca2f0d028ee0eda64b01a9a57e3a653f760405160405180910390a2565b60016003015442101580610d6657506001600401544211155b80610db0575080600760003373ffffffffffffffffffffffffffffffffffffffff1673ffffffffffffffffffffffffffffffffffffffff1681526020019081526020016000205410155b15610de7576040517f16935da100000000000000000000000000000000000000000000000000000000815260040160405180910390fd5b7f000000000000000000000000000000000000000000000000000000000000000073ffffffffffffffffffffffffffffffffffffffff166323b872dd3033846040518463ffffffff1660e01b8152600401610e4493929190611679565b6020604051808303816000875af1158015610e63573d6000803e3d6000fd5b505050506040513d601f19601f82011682018060405250810190610e87919061164c565b508060016002016000828254610e9d91906116b0565b9250508190555080600760003373ffffffffffffffffffffffffffffffffffffffff1673ffffffffffffffffffffffffffffffffffffffff1681526020019081526020016000206000828254610ef391906116b0565b925050819055503373ffffffffffffffffffffffffffffffffffffffff167f0cdb7e259318c69f16c8770399e09f5531befac5033bf7c447e3bc296116929582604051610f409190611251565b60405180910390a250565b600860009054906101000a900460ff1681565b610f66611005565b600073ffffffffffffffffffffffffffffffffffffffff168173ffffffffffffffffffffffffffffffffffffffff1603610fd5576040517f08c379a0000000000000000000000000000000000000000000000000000000008152600401610fcc906117ee565b60405180910390fd5b610fde81611083565b50565b7f000000000000000000000000000000000000000000000000000000000000000081565b61100d611147565b73ffffffffffffffffffffffffffffffffffffffff1661102b610bbf565b73ffffffffffffffffffffffffffffffffffffffff1614611081576040517f08c379a00000000000000000000000000000000000000000000000000000000081526004016110789061185a565b60405180910390fd5b565b60008060009054906101000a900473ffffffffffffffffffffffffffffffffffffffff169050816000806101000a81548173ffffffffffffffffffffffffffffffffffffffff021916908373ffffffffffffffffffffffffffffffffffffffff1602179055508173ffffffffffffffffffffffffffffffffffffffff168173ffffffffffffffffffffffffffffffffffffffff167f8be0079c531659141344cd1fd0a4f28419497f9722a3daafe3b4186f6b6457e060405160405180910390a35050565b600033905090565b600080fd5b6000819050919050565b61116781611154565b811461117257600080fd5b50565b6000813590506111848161115e565b92915050565b6000602082840312156111a05761119f61114f565b5b60006111ae84828501611175565b91505092915050565b600073ffffffffffffffffffffffffffffffffffffffff82169050919050565b60006111e2826111b7565b9050919050565b6111f2816111d7565b81146111fd57600080fd5b50565b60008135905061120f816111e9565b92915050565b60006020828403121561122b5761122a61114f565b5b600061123984828501611200565b91505092915050565b61124b81611154565b82525050565b60006020820190506112666000830184611242565b92915050565b600063ffffffff82169050919050565b6112858161126c565b811461129057600080fd5b50565b6000813590506112a28161127c565b92915050565b600080600080600060a086880312156112c4576112c361114f565b5b60006112d288828901611200565b95505060206112e388828901611293565b94505060406112f488828901611175565b935050606061130588828901611175565b925050608061131688828901611175565b9150509295509295909350565b61132c816111d7565b82525050565b61133b8161126c565b82525050565b60008115159050919050565b61135681611341565b82525050565b600060e082019050611371600083018a611323565b61137e6020830189611332565b61138b6040830188611242565b6113986060830187611242565b6113a56080830186611242565b6113b260a0830185611242565b6113bf60c083018461134d565b98975050505050505050565b60006020820190506113e06000830184611323565b92915050565b7f4e487b7100000000000000000000000000000000000000000000000000000000600052602160045260246000fd5b60038110611426576114256113e6565b5b50565b600081905061143782611415565b919050565b600061144782611429565b9050919050565b6114578161143c565b82525050565b6000602082019050611472600083018461144e565b92915050565b6000819050919050565b600061149d611498611493846111b7565b611478565b6111b7565b9050919050565b60006114af82611482565b9050919050565b60006114c1826114a4565b9050919050565b6114d1816114b6565b82525050565b60006020820190506114ec60008301846114c8565b92915050565b7f4e487b7100000000000000000000000000000000000000000000000000000000600052601160045260246000fd5b600061152c82611154565b915061153783611154565b925082820261154581611154565b9150828204841483151761155c5761155b6114f2565b5b5092915050565b7f4e487b7100000000000000000000000000000000000000000000000000000000600052601260045260246000fd5b600061159d82611154565b91506115a883611154565b9250826115b8576115b7611563565b5b828204905092915050565b60006115ce82611154565b91506115d983611154565b92508282019050808211156115f1576115f06114f2565b5b92915050565b600060408201905061160c6000830185611323565b6116196020830184611242565b9392505050565b61162981611341565b811461163457600080fd5b50565b60008151905061164681611620565b92915050565b6000602082840312156116625761166161114f565b5b600061167084828501611637565b91505092915050565b600060608201905061168e6000830186611323565b61169b6020830185611323565b6116a86040830184611242565b949350505050565b60006116bb82611154565b91506116c683611154565b92508282039050818111156116de576116dd6114f2565b5b92915050565b60006080820190506116f96000830187611332565b6117066020830186611242565b6117136040830185611242565b6117206060830184611242565b95945050505050565b6000815190506117388161115e565b92915050565b6000602082840312156117545761175361114f565b5b600061176284828501611729565b91505092915050565b600082825260208201905092915050565b7f4f776e61626c653a206e6577206f776e657220697320746865207a65726f206160008201527f6464726573730000000000000000000000000000000000000000000000000000602082015250565b60006117d860268361176b565b91506117e38261177c565b604082019050919050565b60006020820190508181036000830152611807816117cb565b9050919050565b7f4f776e61626c653a2063616c6c6572206973206e6f7420746865206f776e6572600082015250565b600061184460208361176b565b915061184f8261180e565b602082019050919050565b6000602082019050818103600083015261187381611837565b905091905056fea2646970667358221220acdc8452c79f2d2d0b4908f16f283e9cfff2b818f7b23b11a9fa2c553c92cb1f64736f6c63430008110033a26469706673582212203603c3dd2026d75ab3e48944277a606c94161233efbd42c7d3e940c85279e49e64736f6c63430008110033",
  "linkReferences": {},
  "deployedLinkReferences": {}
}