{
  "_format": "hh-sol-artifact-1",
  "contractName": "Crowdlend",
  "sourceName": "contracts/Crowdlend.sol",
  "abi": [
    {
      "inputs": [
        {
          "internalType": "address",
          "name": "_token",
          "type": "address"
        }
      ],
      "stateMutability": "nonpayable",
      "type": "constructor"
    },
    {
      "inputs": [],
      "name": "Crowdlend__ErrorClaiming",
      "type": "error"
    },
    {
      "inputs": [],
      "name": "Crowdlend__ErrorPledging",
      "type": "error"
    },
    {
      "inputs": [],
      "name": "Crowdlend__ErrorUnpledging",
      "type": "error"
    },
    {
      "inputs": [],
      "name": "Crowdlend__InvalidDate",
      "type": "error"
    },
    {
      "anonymous": false,
      "inputs": [],
      "name": "Cancel",
      "type": "event"
    },
    {
      "anonymous": false,
      "inputs": [
        {
          "indexed": true,
          "internalType": "uint256",
          "name": "amount",
          "type": "uint256"
        }
      ],
      "name": "Claim",
      "type": "event"
    },
    {
      "anonymous": false,
      "inputs": [
        {
          "indexed": true,
          "internalType": "address",
          "name": "creator",
          "type": "address"
        },
        {
          "indexed": false,
          "internalType": "uint32",
          "name": "apy",
          "type": "uint32"
        },
        {
          "indexed": false,
          "internalType": "uint256",
          "name": "goal",
          "type": "uint256"
        },
        {
          "indexed": false,
          "internalType": "uint256",
          "name": "startAt",
          "type": "uint256"
        },
        {
          "indexed": false,
          "internalType": "uint256",
          "name": "endAt",
          "type": "uint256"
        }
      ],
      "name": "Launch",
      "type": "event"
    },
    {
      "anonymous": false,
      "inputs": [
        {
          "indexed": true,
          "internalType": "address",
          "name": "previousOwner",
          "type": "address"
        },
        {
          "indexed": true,
          "internalType": "address",
          "name": "newOwner",
          "type": "address"
        }
      ],
      "name": "OwnershipTransferred",
      "type": "event"
    },
    {
      "anonymous": false,
      "inputs": [
        {
          "indexed": true,
          "internalType": "address",
          "name": "caller",
          "type": "address"
        },
        {
          "indexed": false,
          "internalType": "uint256",
          "name": "amount",
          "type": "uint256"
        }
      ],
      "name": "Pledge",
      "type": "event"
    },
    {
      "anonymous": false,
      "inputs": [
        {
          "indexed": true,
          "internalType": "address",
          "name": "caller",
          "type": "address"
        },
        {
          "indexed": false,
          "internalType": "uint256",
          "name": "amount",
          "type": "uint256"
        }
      ],
      "name": "Refund",
      "type": "event"
    },
    {
      "anonymous": false,
      "inputs": [
        {
          "indexed": true,
          "internalType": "address",
          "name": "caller",
          "type": "address"
        },
        {
          "indexed": false,
          "internalType": "uint256",
          "name": "amount",
          "type": "uint256"
        }
      ],
      "name": "Unpledge",
      "type": "event"
    },
    {
      "inputs": [],
      "name": "campaign",
      "outputs": [
        {
          "internalType": "address",
          "name": "creator",
          "type": "address"
        },
        {
          "internalType": "uint32",
          "name": "apy",
          "type": "uint32"
        },
        {
          "internalType": "uint256",
          "name": "goal",
          "type": "uint256"
        },
        {
          "internalType": "uint256",
          "name": "pledged",
          "type": "uint256"
        },
        {
          "internalType": "uint256",
          "name": "startAt",
          "type": "uint256"
        },
        {
          "internalType": "uint256",
          "name": "endAt",
          "type": "uint256"
        },
        {
          "internalType": "bool",
          "name": "claimed",
          "type": "bool"
        }
      ],
      "stateMutability": "view",
      "type": "function"
    },
    {
      "inputs": [],
      "name": "claimFunds",
      "outputs": [],
      "stateMutability": "nonpayable",
      "type": "function"
    },
    {
      "inputs": [],
      "name": "claimPledged",
      "outputs": [],
      "stateMutability": "nonpayable",
      "type": "function"
    },
    {
      "inputs": [
        {
          "internalType": "address",
          "name": "_creator",
          "type": "address"
        },
        {
          "internalType": "uint32",
          "name": "_apy",
          "type": "uint32"
        },
        {
          "internalType": "uint256",
          "name": "_goal",
          "type": "uint256"
        },
        {
          "internalType": "uint256",
          "name": "_startAt",
          "type": "uint256"
        },
        {
          "internalType": "uint256",
          "name": "_endAt",
          "type": "uint256"
        }
      ],
      "name": "launch",
      "outputs": [],
      "stateMutability": "nonpayable",
      "type": "function"
    },
    {
      "inputs": [],
      "name": "owner",
      "outputs": [
        {
          "internalType": "address",
          "name": "",
          "type": "address"
        }
      ],
      "stateMutability": "view",
      "type": "function"
    },
    {
      "inputs": [
        {
          "internalType": "uint256",
          "name": "_amount",
          "type": "uint256"
        }
      ],
      "name": "pledge",
      "outputs": [],
      "stateMutability": "nonpayable",
      "type": "function"
    },
    {
      "inputs": [
        {
          "internalType": "address",
          "name": "",
          "type": "address"
        }
      ],
      "name": "pledgedAmount",
      "outputs": [
        {
          "internalType": "uint256",
          "name": "",
          "type": "uint256"
        }
      ],
      "stateMutability": "view",
      "type": "function"
    },
    {
      "inputs": [],
      "name": "renounceOwnership",
      "outputs": [],
      "stateMutability": "nonpayable",
      "type": "function"
    },
    {
      "inputs": [
        {
          "internalType": "uint256",
          "name": "_amount",
          "type": "uint256"
        }
      ],
      "name": "repay",
      "outputs": [],
      "stateMutability": "nonpayable",
      "type": "function"
    },
    {
      "inputs": [],
      "name": "state",
      "outputs": [
        {
          "internalType": "enum CampaignState",
          "name": "",
          "type": "uint8"
        }
      ],
      "stateMutability": "view",
      "type": "function"
    },
    {
      "inputs": [],
      "name": "token",
      "outputs": [
        {
          "internalType": "contract IERC20",
          "name": "",
          "type": "address"
        }
      ],
      "stateMutability": "view",
      "type": "function"
    },
    {
      "inputs": [
        {
          "internalType": "address",
          "name": "newOwner",
          "type": "address"
        }
      ],
      "name": "transferOwnership",
      "outputs": [],
      "stateMutability": "nonpayable",
      "type": "function"
    },
    {
      "inputs": [
        {
          "internalType": "uint256",
          "name": "_amount",
          "type": "uint256"
        }
      ],
      "name": "unPledge",
      "outputs": [],
      "stateMutability": "nonpayable",
      "type": "function"
    }
  ],
  "bytecode": "0x60a06040523480156200001157600080fd5b5060405162001c3b38038062001c3b8339818101604052810190620000379190620001f6565b620000576200004b620000c060201b60201c565b620000c860201b60201c565b8073ffffffffffffffffffffffffffffffffffffffff1660808173ffffffffffffffffffffffffffffffffffffffff16815250506000600860006101000a81548160ff02191690836002811115620000b457620000b362000228565b5b02179055505062000257565b600033905090565b60008060009054906101000a900473ffffffffffffffffffffffffffffffffffffffff169050816000806101000a81548173ffffffffffffffffffffffffffffffffffffffff021916908373ffffffffffffffffffffffffffffffffffffffff1602179055508173ffffffffffffffffffffffffffffffffffffffff168173ffffffffffffffffffffffffffffffffffffffff167f8be0079c531659141344cd1fd0a4f28419497f9722a3daafe3b4186f6b6457e060405160405180910390a35050565b600080fd5b600073ffffffffffffffffffffffffffffffffffffffff82169050919050565b6000620001be8262000191565b9050919050565b620001d081620001b1565b8114620001dc57600080fd5b50565b600081519050620001f081620001c5565b92915050565b6000602082840312156200020f576200020e6200018c565b5b60006200021f84828501620001df565b91505092915050565b7f4e487b7100000000000000000000000000000000000000000000000000000000600052602160045260246000fd5b608051611990620002ab60003960008181610337015281816103d601528181610554015281816105f30152818161091d01528181610a0e01528181610c9501528181610e07015261100101526119906000f3fe608060405234801561001057600080fd5b50600436106100cf5760003560e01c8063811e539c1161008c578063b761f24b11610066578063b761f24b146101b8578063c19d93fb146101d4578063f2fde38b146101f2578063fc0c546a1461020e576100cf565b8063811e539c1461016c5780638da5cb5b14610190578063ac307773146101ae576100cf565b806303fbcd8f146100d4578063371fd8e6146100de5780633c2f4a97146100fa57806353aa13d81461012a578063715018a6146101465780637326c9c014610150575b600080fd5b6100dc61022c565b005b6100f860048036038101906100f3919061126a565b6104c2565b005b610114600480360381019061010f91906112f5565b610695565b6040516101219190611331565b60405180910390f35b610144600480360381019061013f9190611388565b6106ad565b005b61014e6108e9565b005b61016a6004803603810190610165919061126a565b6108fd565b005b610174610b70565b604051610187979695949392919061143c565b60405180910390f35b610198610bdd565b6040516101a591906114ab565b60405180910390f35b6101b6610c06565b005b6101d260048036038101906101cd919061126a565b610d6b565b005b6101dc610f69565b6040516101e9919061153d565b60405180910390f35b61020c600480360381019061020791906112f5565b610f7c565b005b610216610fff565b60405161022391906115b7565b60405180910390f35b600160040154421161026a576040517f8e53561400000000000000000000000000000000000000000000000000000000815260040160405180910390fd5b6000600760003373ffffffffffffffffffffffffffffffffffffffff1673ffffffffffffffffffffffffffffffffffffffff1681526020019081526020016000205490506000600760003373ffffffffffffffffffffffffffffffffffffffff1673ffffffffffffffffffffffffffffffffffffffff168152602001908152602001600020819055506000606482600160000160149054906101000a900463ffffffff1663ffffffff1661031e9190611601565b6103289190611672565b8261033391906116a3565b90507f000000000000000000000000000000000000000000000000000000000000000073ffffffffffffffffffffffffffffffffffffffff1663095ea7b330836040518363ffffffff1660e01b81526004016103909291906116d7565b6020604051808303816000875af11580156103af573d6000803e3d6000fd5b505050506040513d601f19601f820116820180604052508101906103d3919061172c565b507f000000000000000000000000000000000000000000000000000000000000000073ffffffffffffffffffffffffffffffffffffffff166323b872dd3033846040518463ffffffff1660e01b815260040161043193929190611759565b6020604051808303816000875af1158015610450573d6000803e3d6000fd5b505050506040513d601f19601f82011682018060405250810190610474919061172c565b50806001600201600082825461048a9190611790565b92505081905550817f7bb2b3c10797baccb6f8c4791f1edd6ca2f0d028ee0eda64b01a9a57e3a653f760405160405180910390a25050565b60016004015442108061051b57506001600201546064600160000160149054906101000a900463ffffffff1663ffffffff166001600201546105049190611601565b61050e9190611672565b61051891906116a3565b81105b15610552576040517f8e53561400000000000000000000000000000000000000000000000000000000815260040160405180910390fd5b7f000000000000000000000000000000000000000000000000000000000000000073ffffffffffffffffffffffffffffffffffffffff1663095ea7b330836040518363ffffffff1660e01b81526004016105ad9291906116d7565b6020604051808303816000875af11580156105cc573d6000803e3d6000fd5b505050506040513d601f19601f820116820180604052508101906105f0919061172c565b507f000000000000000000000000000000000000000000000000000000000000000073ffffffffffffffffffffffffffffffffffffffff166323b872dd3330846040518463ffffffff1660e01b815260040161064e93929190611759565b6020604051808303816000875af115801561066d573d6000803e3d6000fd5b505050506040513d601f19601f82011682018060405250810190610691919061172c565b5050565b60076020528060005260406000206000915090505481565b6106b5611023565b6106bf60026110a1565b818110806107015750600060028111156106dc576106db6114c6565b5b600860009054906101000a900460ff1660028111156106fe576106fd6114c6565b5b14155b15610738576040517f90ff377900000000000000000000000000000000000000000000000000000000815260040160405180910390fd5b61074260036110a1565b6040518060e001604052808673ffffffffffffffffffffffffffffffffffffffff1681526020018563ffffffff1681526020018481526020016000815260200183815260200182815260200160001515815250600160008201518160000160006101000a81548173ffffffffffffffffffffffffffffffffffffffff021916908373ffffffffffffffffffffffffffffffffffffffff16021790555060208201518160000160146101000a81548163ffffffff021916908363ffffffff16021790555060408201518160010155606082015181600201556080820151816003015560a0820151816004015560c08201518160050160006101000a81548160ff02191690831515021790555090505061085a60046110a1565b61086385610f7c565b6001600860006101000a81548160ff02191690836002811115610889576108886114c6565b5b02179055503373ffffffffffffffffffffffffffffffffffffffff167f4e136db1bdce71f956c36a3e4ce8fae970fd6d5527a3e832551b5ac5b951243c858585856040516108da94939291906117c4565b60405180910390a25050505050565b6108f1611023565b6108fb600061113a565b565b600160030154421080610914575060016004015442115b806109b75750807f000000000000000000000000000000000000000000000000000000000000000073ffffffffffffffffffffffffffffffffffffffff166370a08231336040518263ffffffff1660e01b815260040161097491906114ab565b602060405180830381865afa158015610991573d6000803e3d6000fd5b505050506040513d601f19601f820116820180604052508101906109b5919061181e565b105b806109d557506001800154816001600201546109d391906116a3565b115b15610a0c576040517fbb5d13cb00000000000000000000000000000000000000000000000000000000815260040160405180910390fd5b7f000000000000000000000000000000000000000000000000000000000000000073ffffffffffffffffffffffffffffffffffffffff166323b872dd3330846040518463ffffffff1660e01b8152600401610a6993929190611759565b6020604051808303816000875af1158015610a88573d6000803e3d6000fd5b505050506040513d601f19601f82011682018060405250810190610aac919061172c565b508060016002016000828254610ac291906116a3565b9250508190555080600760003373ffffffffffffffffffffffffffffffffffffffff1673ffffffffffffffffffffffffffffffffffffffff1681526020019081526020016000206000828254610b1891906116a3565b925050819055503373ffffffffffffffffffffffffffffffffffffffff167f5e91ea8ea1c46300eb761859be01d7b16d44389ef91e03a163a87413cbf55b9582604051610b659190611331565b60405180910390a250565b60018060000160009054906101000a900473ffffffffffffffffffffffffffffffffffffffff16908060000160149054906101000a900463ffffffff16908060010154908060020154908060030154908060040154908060050160009054906101000a900460ff16905087565b60008060009054906101000a900473ffffffffffffffffffffffffffffffffffffffff16905090565b610c0e611023565b600160030154421080610c25575060016004015442115b80610c3f5750600160050160009054906101000a900460ff165b15610c76576040517fbb5d13cb00000000000000000000000000000000000000000000000000000000815260040160405180910390fd5b60018060050160006101000a81548160ff0219169083151502179055507f000000000000000000000000000000000000000000000000000000000000000073ffffffffffffffffffffffffffffffffffffffff1663a9059cbb336001600201546040518363ffffffff1660e01b8152600401610cf39291906116d7565b6020604051808303816000875af1158015610d12573d6000803e3d6000fd5b505050506040513d601f19601f82011682018060405250810190610d36919061172c565b506001600201547f7bb2b3c10797baccb6f8c4791f1edd6ca2f0d028ee0eda64b01a9a57e3a653f760405160405180910390a2565b60016003015442101580610d8457506001600401544211155b80610dce575080600760003373ffffffffffffffffffffffffffffffffffffffff1673ffffffffffffffffffffffffffffffffffffffff1681526020019081526020016000205410155b15610e05576040517f16935da100000000000000000000000000000000000000000000000000000000815260040160405180910390fd5b7f000000000000000000000000000000000000000000000000000000000000000073ffffffffffffffffffffffffffffffffffffffff166323b872dd3033846040518463ffffffff1660e01b8152600401610e6293929190611759565b6020604051808303816000875af1158015610e81573d6000803e3d6000fd5b505050506040513d601f19601f82011682018060405250810190610ea5919061172c565b508060016002016000828254610ebb9190611790565b9250508190555080600760003373ffffffffffffffffffffffffffffffffffffffff1673ffffffffffffffffffffffffffffffffffffffff1681526020019081526020016000206000828254610f119190611790565b925050819055503373ffffffffffffffffffffffffffffffffffffffff167f0cdb7e259318c69f16c8770399e09f5531befac5033bf7c447e3bc296116929582604051610f5e9190611331565b60405180910390a250565b600860009054906101000a900460ff1681565b610f84611023565b600073ffffffffffffffffffffffffffffffffffffffff168173ffffffffffffffffffffffffffffffffffffffff1603610ff3576040517f08c379a0000000000000000000000000000000000000000000000000000000008152600401610fea906118ce565b60405180910390fd5b610ffc8161113a565b50565b7f000000000000000000000000000000000000000000000000000000000000000081565b61102b6111fe565b73ffffffffffffffffffffffffffffffffffffffff16611049610bdd565b73ffffffffffffffffffffffffffffffffffffffff161461109f576040517f08c379a00000000000000000000000000000000000000000000000000000000081526004016110969061193a565b60405180910390fd5b565b611137816040516024016110b59190611331565b6040516020818303038152906040527ff82c50f1000000000000000000000000000000000000000000000000000000007bffffffffffffffffffffffffffffffffffffffffffffffffffffffff19166020820180517bffffffffffffffffffffffffffffffffffffffffffffffffffffffff8381831617835250505050611206565b50565b60008060009054906101000a900473ffffffffffffffffffffffffffffffffffffffff169050816000806101000a81548173ffffffffffffffffffffffffffffffffffffffff021916908373ffffffffffffffffffffffffffffffffffffffff1602179055508173ffffffffffffffffffffffffffffffffffffffff168173ffffffffffffffffffffffffffffffffffffffff167f8be0079c531659141344cd1fd0a4f28419497f9722a3daafe3b4186f6b6457e060405160405180910390a35050565b600033905090565b60008151905060006a636f6e736f6c652e6c6f679050602083016000808483855afa5050505050565b600080fd5b6000819050919050565b61124781611234565b811461125257600080fd5b50565b6000813590506112648161123e565b92915050565b6000602082840312156112805761127f61122f565b5b600061128e84828501611255565b91505092915050565b600073ffffffffffffffffffffffffffffffffffffffff82169050919050565b60006112c282611297565b9050919050565b6112d2816112b7565b81146112dd57600080fd5b50565b6000813590506112ef816112c9565b92915050565b60006020828403121561130b5761130a61122f565b5b6000611319848285016112e0565b91505092915050565b61132b81611234565b82525050565b60006020820190506113466000830184611322565b92915050565b600063ffffffff82169050919050565b6113658161134c565b811461137057600080fd5b50565b6000813590506113828161135c565b92915050565b600080600080600060a086880312156113a4576113a361122f565b5b60006113b2888289016112e0565b95505060206113c388828901611373565b94505060406113d488828901611255565b93505060606113e588828901611255565b92505060806113f688828901611255565b9150509295509295909350565b61140c816112b7565b82525050565b61141b8161134c565b82525050565b60008115159050919050565b61143681611421565b82525050565b600060e082019050611451600083018a611403565b61145e6020830189611412565b61146b6040830188611322565b6114786060830187611322565b6114856080830186611322565b61149260a0830185611322565b61149f60c083018461142d565b98975050505050505050565b60006020820190506114c06000830184611403565b92915050565b7f4e487b7100000000000000000000000000000000000000000000000000000000600052602160045260246000fd5b60038110611506576115056114c6565b5b50565b6000819050611517826114f5565b919050565b600061152782611509565b9050919050565b6115378161151c565b82525050565b6000602082019050611552600083018461152e565b92915050565b6000819050919050565b600061157d61157861157384611297565b611558565b611297565b9050919050565b600061158f82611562565b9050919050565b60006115a182611584565b9050919050565b6115b181611596565b82525050565b60006020820190506115cc60008301846115a8565b92915050565b7f4e487b7100000000000000000000000000000000000000000000000000000000600052601160045260246000fd5b600061160c82611234565b915061161783611234565b925082820261162581611234565b9150828204841483151761163c5761163b6115d2565b5b5092915050565b7f4e487b7100000000000000000000000000000000000000000000000000000000600052601260045260246000fd5b600061167d82611234565b915061168883611234565b92508261169857611697611643565b5b828204905092915050565b60006116ae82611234565b91506116b983611234565b92508282019050808211156116d1576116d06115d2565b5b92915050565b60006040820190506116ec6000830185611403565b6116f96020830184611322565b9392505050565b61170981611421565b811461171457600080fd5b50565b60008151905061172681611700565b92915050565b6000602082840312156117425761174161122f565b5b600061175084828501611717565b91505092915050565b600060608201905061176e6000830186611403565b61177b6020830185611403565b6117886040830184611322565b949350505050565b600061179b82611234565b91506117a683611234565b92508282039050818111156117be576117bd6115d2565b5b92915050565b60006080820190506117d96000830187611412565b6117e66020830186611322565b6117f36040830185611322565b6118006060830184611322565b95945050505050565b6000815190506118188161123e565b92915050565b6000602082840312156118345761183361122f565b5b600061184284828501611809565b91505092915050565b600082825260208201905092915050565b7f4f776e61626c653a206e6577206f776e657220697320746865207a65726f206160008201527f6464726573730000000000000000000000000000000000000000000000000000602082015250565b60006118b860268361184b565b91506118c38261185c565b604082019050919050565b600060208201905081810360008301526118e7816118ab565b9050919050565b7f4f776e61626c653a2063616c6c6572206973206e6f7420746865206f776e6572600082015250565b600061192460208361184b565b915061192f826118ee565b602082019050919050565b6000602082019050818103600083015261195381611917565b905091905056fea2646970667358221220551e9e2edba8b8924b884df52d479d644c3960b7bfd2e2c593e8b5ef2c19343764736f6c63430008110033",
  "linkReferences": {},
  "deployedLinkReferences": {}
}